{
  "contractName": "Dmeet",
  "abi": [
    {
      "anonymous": false,
      "inputs": [
        {
          "indexed": false,
          "internalType": "address",
          "name": "previousAdmin",
          "type": "address"
        },
        {
          "indexed": false,
          "internalType": "address",
          "name": "newAdmin",
          "type": "address"
        }
      ],
      "name": "AdminChanged",
      "type": "event"
    },
    {
      "anonymous": false,
      "inputs": [
        {
          "indexed": true,
          "internalType": "address",
          "name": "beacon",
          "type": "address"
        }
      ],
      "name": "BeaconUpgraded",
      "type": "event"
    },
    {
      "anonymous": false,
      "inputs": [
        {
          "indexed": true,
          "internalType": "address",
          "name": "creator",
          "type": "address"
        },
        {
          "indexed": false,
          "internalType": "uint256",
          "name": "viewer",
          "type": "uint256"
        },
        {
          "indexed": false,
          "internalType": "uint256",
          "name": "participant",
          "type": "uint256"
        }
      ],
      "name": "Membership",
      "type": "event"
    },
    {
      "anonymous": false,
      "inputs": [
        {
          "indexed": true,
          "internalType": "address",
          "name": "previousOwner",
          "type": "address"
        },
        {
          "indexed": true,
          "internalType": "address",
          "name": "newOwner",
          "type": "address"
        }
      ],
      "name": "OwnershipTransferred",
      "type": "event"
    },
    {
      "anonymous": false,
      "inputs": [
        {
          "indexed": true,
          "internalType": "address",
          "name": "implementation",
          "type": "address"
        }
      ],
      "name": "Upgraded",
      "type": "event"
    },
    {
      "inputs": [
        {
          "internalType": "uint256",
          "name": "",
          "type": "uint256"
        }
      ],
      "name": "creators",
      "outputs": [
        {
          "internalType": "address",
          "name": "",
          "type": "address"
        }
      ],
      "stateMutability": "view",
      "type": "function",
      "constant": true
    },
    {
      "inputs": [],
      "name": "owner",
      "outputs": [
        {
          "internalType": "address",
          "name": "",
          "type": "address"
        }
      ],
      "stateMutability": "view",
      "type": "function",
      "constant": true
    },
    {
      "inputs": [],
      "name": "proxiableUUID",
      "outputs": [
        {
          "internalType": "bytes32",
          "name": "",
          "type": "bytes32"
        }
      ],
      "stateMutability": "view",
      "type": "function",
      "constant": true
    },
    {
      "inputs": [],
      "name": "renounceOwnership",
      "outputs": [],
      "stateMutability": "nonpayable",
      "type": "function"
    },
    {
      "inputs": [
        {
          "internalType": "uint256",
          "name": "",
          "type": "uint256"
        }
      ],
      "name": "tokenPrice",
      "outputs": [
        {
          "internalType": "uint256",
          "name": "",
          "type": "uint256"
        }
      ],
      "stateMutability": "view",
      "type": "function",
      "constant": true
    },
    {
      "inputs": [
        {
          "internalType": "address",
          "name": "newOwner",
          "type": "address"
        }
      ],
      "name": "transferOwnership",
      "outputs": [],
      "stateMutability": "nonpayable",
      "type": "function"
    },
    {
      "inputs": [
        {
          "internalType": "address",
          "name": "newImplementation",
          "type": "address"
        }
      ],
      "name": "upgradeTo",
      "outputs": [],
      "stateMutability": "nonpayable",
      "type": "function"
    },
    {
      "inputs": [
        {
          "internalType": "address",
          "name": "newImplementation",
          "type": "address"
        },
        {
          "internalType": "bytes",
          "name": "data",
          "type": "bytes"
        }
      ],
      "name": "upgradeToAndCall",
      "outputs": [],
      "stateMutability": "payable",
      "type": "function",
      "payable": true
    },
    {
      "inputs": [],
      "name": "initialize",
      "outputs": [],
      "stateMutability": "nonpayable",
      "type": "function"
    },
    {
      "inputs": [
        {
          "internalType": "uint256",
          "name": "_id",
          "type": "uint256"
        }
      ],
      "name": "buyMembership",
      "outputs": [],
      "stateMutability": "payable",
      "type": "function",
      "payable": true
    },
    {
      "inputs": [
        {
          "internalType": "uint256",
          "name": "_viewerPrice",
          "type": "uint256"
        },
        {
          "internalType": "uint256",
          "name": "_participantPrice",
          "type": "uint256"
        }
      ],
      "name": "createMembership",
      "outputs": [],
      "stateMutability": "nonpayable",
      "type": "function"
    },
    {
      "inputs": [
        {
          "internalType": "address",
          "name": "_account",
          "type": "address"
        },
        {
          "internalType": "uint256",
          "name": "_id",
          "type": "uint256"
        }
      ],
      "name": "balanceOf",
      "outputs": [
        {
          "internalType": "uint256",
          "name": "",
          "type": "uint256"
        }
      ],
      "stateMutability": "view",
      "type": "function",
      "constant": true
    },
    {
      "inputs": [],
      "name": "withdraw",
      "outputs": [],
      "stateMutability": "nonpayable",
      "type": "function"
    }
  ],
  "bytecode": "0x60a06040523073ffffffffffffffffffffffffffffffffffffffff1660809073ffffffffffffffffffffffffffffffffffffffff1681525034801561004357600080fd5b5060805161271d61007b600039600081816103de0152818161046c015281816108a80152818161093601526109e6015261271d6000f3fe6080604052600436106100c15760003560e01c8063715018a61161007f578063a432312811610059578063a43231281461020c578063cd53d08e14610228578063d4ddce8a14610265578063f2fde38b146102a2576100c1565b8063715018a6146101b35780638129fc1c146101ca5780638da5cb5b146101e1576100c1565b8062fdd58e146100c65780633659cfe6146101035780633ccfd60b1461012c578063471eb94c146101435780634f1ef2861461016c57806352d1902d14610188575b600080fd5b3480156100d257600080fd5b506100ed60048036038101906100e89190611851565b6102cb565b6040516100fa91906118a0565b60405180910390f35b34801561010f57600080fd5b5061012a600480360381019061012591906118bb565b6103dc565b005b34801561013857600080fd5b50610141610564565b005b34801561014f57600080fd5b5061016a600480360381019061016591906118e8565b610695565b005b61018660048036038101906101819190611a6e565b6108a6565b005b34801561019457600080fd5b5061019d6109e2565b6040516101aa9190611ae3565b60405180910390f35b3480156101bf57600080fd5b506101c8610a9b565b005b3480156101d657600080fd5b506101df610b23565b005b3480156101ed57600080fd5b506101f6610c17565b6040516102039190611b0d565b60405180910390f35b61022660048036038101906102219190611b28565b610c41565b005b34801561023457600080fd5b5061024f600480360381019061024a9190611b28565b610e9e565b60405161025c9190611b0d565b60405180910390f35b34801561027157600080fd5b5061028c60048036038101906102879190611b28565b610ed1565b60405161029991906118a0565b60405180910390f35b3480156102ae57600080fd5b506102c960048036038101906102c491906118bb565b610ee9565b005b60008073ffffffffffffffffffffffffffffffffffffffff168373ffffffffffffffffffffffffffffffffffffffff160361033b576040517f08c379a000000000000000000000000000000000000000000000000000000000815260040161033290611bd8565b60405180910390fd5b61034482610fe0565b610383576040517f08c379a000000000000000000000000000000000000000000000000000000000815260040161037a90611c44565b60405180910390fd5b60cc600083815260200190815260200160002060008473ffffffffffffffffffffffffffffffffffffffff1673ffffffffffffffffffffffffffffffffffffffff16815260200190815260200160002054905092915050565b7f000000000000000000000000000000000000000000000000000000000000000073ffffffffffffffffffffffffffffffffffffffff163073ffffffffffffffffffffffffffffffffffffffff160361046a576040517f08c379a000000000000000000000000000000000000000000000000000000000815260040161046190611cd6565b60405180910390fd5b7f000000000000000000000000000000000000000000000000000000000000000073ffffffffffffffffffffffffffffffffffffffff166104a961104c565b73ffffffffffffffffffffffffffffffffffffffff16146104ff576040517f08c379a00000000000000000000000000000000000000000000000000000000081526004016104f690611d68565b60405180910390fd5b610508816110a3565b61056181600067ffffffffffffffff81111561052757610526611943565b5b6040519080825280601f01601f1916602001820160405280156105595781602001600182028036833780820191505090505b506000611122565b50565b61056c611290565b73ffffffffffffffffffffffffffffffffffffffff1661058a610c17565b73ffffffffffffffffffffffffffffffffffffffff16146105e0576040517f08c379a00000000000000000000000000000000000000000000000000000000081526004016105d790611dd4565b60405180910390fd5b600047905060003373ffffffffffffffffffffffffffffffffffffffff168260405161060b90611e25565b60006040518083038185875af1925050503d8060008114610648576040519150601f19603f3d011682016040523d82523d6000602084013e61064d565b606091505b5050905080610691576040517f08c379a000000000000000000000000000000000000000000000000000000000815260040161068890611e86565b60405180910390fd5b5050565b6000806000841115610774576106a9611298565b91506106b36112b5565b3360ca600084815260200190815260200160002060006101000a81548173ffffffffffffffffffffffffffffffffffffffff021916908373ffffffffffffffffffffffffffffffffffffffff1602179055508360cb600084815260200190815260200160002081905550600160cc600084815260200190815260200160002060003373ffffffffffffffffffffffffffffffffffffffff1673ffffffffffffffffffffffffffffffffffffffff168152602001908152602001600020819055505b600083111561085057610785611298565b905061078f6112b5565b3360ca600083815260200190815260200160002060006101000a81548173ffffffffffffffffffffffffffffffffffffffff021916908373ffffffffffffffffffffffffffffffffffffffff1602179055508260cb600083815260200190815260200160002081905550600160cc600083815260200190815260200160002060003373ffffffffffffffffffffffffffffffffffffffff1673ffffffffffffffffffffffffffffffffffffffff168152602001908152602001600020819055505b3373ffffffffffffffffffffffffffffffffffffffff167f9752103f34b3dc3370aec0ba081b56d3149e6d7f6b750c28d340961ddd0065708383604051610898929190611ea6565b60405180910390a250505050565b7f000000000000000000000000000000000000000000000000000000000000000073ffffffffffffffffffffffffffffffffffffffff163073ffffffffffffffffffffffffffffffffffffffff1603610934576040517f08c379a000000000000000000000000000000000000000000000000000000000815260040161092b90611cd6565b60405180910390fd5b7f000000000000000000000000000000000000000000000000000000000000000073ffffffffffffffffffffffffffffffffffffffff1661097361104c565b73ffffffffffffffffffffffffffffffffffffffff16146109c9576040517f08c379a00000000000000000000000000000000000000000000000000000000081526004016109c090611d68565b60405180910390fd5b6109d2826110a3565b6109de82826001611122565b5050565b60007f000000000000000000000000000000000000000000000000000000000000000073ffffffffffffffffffffffffffffffffffffffff163073ffffffffffffffffffffffffffffffffffffffff1614610a72576040517f08c379a0000000000000000000000000000000000000000000000000000000008152600401610a6990611f41565b60405180910390fd5b7f360894a13ba1a3210667c828492db98dca3e2076cc3735a920a3ca505d382bbc60001b905090565b610aa3611290565b73ffffffffffffffffffffffffffffffffffffffff16610ac1610c17565b73ffffffffffffffffffffffffffffffffffffffff1614610b17576040517f08c379a0000000000000000000000000000000000000000000000000000000008152600401610b0e90611dd4565b60405180910390fd5b610b2160006112cf565b565b600060019054906101000a900460ff16610b4b5760008054906101000a900460ff1615610b54565b610b53611395565b5b610b93576040517f08c379a0000000000000000000000000000000000000000000000000000000008152600401610b8a90611fd3565b60405180910390fd5b60008060019054906101000a900460ff161590508015610be3576001600060016101000a81548160ff02191690831515021790555060016000806101000a81548160ff0219169083151502179055505b610beb6113a6565b610bf36113ff565b8015610c145760008060016101000a81548160ff0219169083151502179055505b50565b6000603360009054906101000a900473ffffffffffffffffffffffffffffffffffffffff16905090565b610c4a81610fe0565b610c89576040517f08c379a0000000000000000000000000000000000000000000000000000000008152600401610c8090611c44565b60405180910390fd5b6000610c9533836102cb565b905060018110610cda576040517f08c379a0000000000000000000000000000000000000000000000000000000008152600401610cd19061203f565b60405180910390fd5b600060cb600084815260200190815260200160002054905034811115610d35576040517f08c379a0000000000000000000000000000000000000000000000000000000008152600401610d2c906120ab565b60405180910390fd5b600060ca600085815260200190815260200160002060009054906101000a900473ffffffffffffffffffffffffffffffffffffffff16905060008173ffffffffffffffffffffffffffffffffffffffff16610daf610384610da16103e83461145090919063ffffffff16565b61146690919063ffffffff16565b604051610dbb90611e25565b60006040518083038185875af1925050503d8060008114610df8576040519150601f19603f3d011682016040523d82523d6000602084013e610dfd565b606091505b5050905080610e41576040517f08c379a0000000000000000000000000000000000000000000000000000000008152600401610e3890611e86565b60405180910390fd5b600160cc600087815260200190815260200160002060003373ffffffffffffffffffffffffffffffffffffffff1673ffffffffffffffffffffffffffffffffffffffff168152602001908152602001600020819055505050505050565b60ca6020528060005260406000206000915054906101000a900473ffffffffffffffffffffffffffffffffffffffff1681565b60cb6020528060005260406000206000915090505481565b610ef1611290565b73ffffffffffffffffffffffffffffffffffffffff16610f0f610c17565b73ffffffffffffffffffffffffffffffffffffffff1614610f65576040517f08c379a0000000000000000000000000000000000000000000000000000000008152600401610f5c90611dd4565b60405180910390fd5b600073ffffffffffffffffffffffffffffffffffffffff168173ffffffffffffffffffffffffffffffffffffffff1603610fd4576040517f08c379a0000000000000000000000000000000000000000000000000000000008152600401610fcb9061213d565b60405180910390fd5b610fdd816112cf565b50565b60008073ffffffffffffffffffffffffffffffffffffffff1660ca600084815260200190815260200160002060009054906101000a900473ffffffffffffffffffffffffffffffffffffffff1673ffffffffffffffffffffffffffffffffffffffff1614159050919050565b600061107a7f360894a13ba1a3210667c828492db98dca3e2076cc3735a920a3ca505d382bbc60001b61147c565b60000160009054906101000a900473ffffffffffffffffffffffffffffffffffffffff16905090565b6110ab611290565b73ffffffffffffffffffffffffffffffffffffffff166110c9610c17565b73ffffffffffffffffffffffffffffffffffffffff161461111f576040517f08c379a000000000000000000000000000000000000000000000000000000000815260040161111690611dd4565b60405180910390fd5b50565b61114e7f4910fdfa16fed3260ed0e7147f7cc6da11a60208b5b9406d12a635614ffd914360001b611486565b60000160009054906101000a900460ff16156111725761116d83611490565b61128b565b8273ffffffffffffffffffffffffffffffffffffffff166352d1902d6040518163ffffffff1660e01b8152600401602060405180830381865afa9250505080156111da57506040513d601f19601f820116820180604052508101906111d79190612189565b60015b611219576040517f08c379a000000000000000000000000000000000000000000000000000000000815260040161121090612228565b60405180910390fd5b7f360894a13ba1a3210667c828492db98dca3e2076cc3735a920a3ca505d382bbc60001b811461127e576040517f08c379a0000000000000000000000000000000000000000000000000000000008152600401611275906122ba565b60405180910390fd5b5061128a838383611549565b5b505050565b600033905090565b60006112b0600160c95461157590919063ffffffff16565b905090565b60c960008154809291906112c890612309565b9190505550565b6000603360009054906101000a900473ffffffffffffffffffffffffffffffffffffffff16905081603360006101000a81548173ffffffffffffffffffffffffffffffffffffffff021916908373ffffffffffffffffffffffffffffffffffffffff1602179055508173ffffffffffffffffffffffffffffffffffffffff168173ffffffffffffffffffffffffffffffffffffffff167f8be0079c531659141344cd1fd0a4f28419497f9722a3daafe3b4186f6b6457e060405160405180910390a35050565b60006113a03061158b565b15905090565b600060019054906101000a900460ff166113f5576040517f08c379a00000000000000000000000000000000000000000000000000000000081526004016113ec906123c3565b60405180910390fd5b6113fd6115ae565b565b600060019054906101000a900460ff1661144e576040517f08c379a0000000000000000000000000000000000000000000000000000000008152600401611445906123c3565b60405180910390fd5b565b6000818361145e9190612412565b905092915050565b600081836114749190612443565b905092915050565b6000819050919050565b6000819050919050565b6114998161158b565b6114d8576040517f08c379a00000000000000000000000000000000000000000000000000000000081526004016114cf906124f7565b60405180910390fd5b806115057f360894a13ba1a3210667c828492db98dca3e2076cc3735a920a3ca505d382bbc60001b61147c565b60000160006101000a81548173ffffffffffffffffffffffffffffffffffffffff021916908373ffffffffffffffffffffffffffffffffffffffff16021790555050565b6115528361160f565b60008251118061155f5750805b156115705761156e838361165e565b505b505050565b600081836115839190612517565b905092915050565b6000808273ffffffffffffffffffffffffffffffffffffffff163b119050919050565b600060019054906101000a900460ff166115fd576040517f08c379a00000000000000000000000000000000000000000000000000000000081526004016115f4906123c3565b60405180910390fd5b61160d611608611290565b6112cf565b565b61161881611490565b8073ffffffffffffffffffffffffffffffffffffffff167fbc7cd75a20ee27fd9adebab32041f755214dbc6bffa90cc0225b39da2e5c2d3b60405160405180910390a250565b60606116698361158b565b6116a8576040517f08c379a000000000000000000000000000000000000000000000000000000000815260040161169f906125bd565b60405180910390fd5b6000808473ffffffffffffffffffffffffffffffffffffffff16846040516116d09190612643565b600060405180830381855af49150503d806000811461170b576040519150601f19603f3d011682016040523d82523d6000602084013e611710565b606091505b509150915061173882826040518060600160405280602781526020016126c160279139611742565b9250505092915050565b60608315611752578290506117a2565b6000835111156117655782518084602001fd5b816040517f08c379a0000000000000000000000000000000000000000000000000000000008152600401611799919061269e565b60405180910390fd5b9392505050565b6000604051905090565b600080fd5b600080fd5b600073ffffffffffffffffffffffffffffffffffffffff82169050919050565b60006117e8826117bd565b9050919050565b6117f8816117dd565b811461180357600080fd5b50565b600081359050611815816117ef565b92915050565b6000819050919050565b61182e8161181b565b811461183957600080fd5b50565b60008135905061184b81611825565b92915050565b60008060408385031215611868576118676117b3565b5b600061187685828601611806565b92505060206118878582860161183c565b9150509250929050565b61189a8161181b565b82525050565b60006020820190506118b56000830184611891565b92915050565b6000602082840312156118d1576118d06117b3565b5b60006118df84828501611806565b91505092915050565b600080604083850312156118ff576118fe6117b3565b5b600061190d8582860161183c565b925050602061191e8582860161183c565b9150509250929050565b600080fd5b600080fd5b6000601f19601f8301169050919050565b7f4e487b7100000000000000000000000000000000000000000000000000000000600052604160045260246000fd5b61197b82611932565b810181811067ffffffffffffffff8211171561199a57611999611943565b5b80604052505050565b60006119ad6117a9565b90506119b98282611972565b919050565b600067ffffffffffffffff8211156119d9576119d8611943565b5b6119e282611932565b9050602081019050919050565b82818337600083830152505050565b6000611a11611a0c846119be565b6119a3565b905082815260208101848484011115611a2d57611a2c61192d565b5b611a388482856119ef565b509392505050565b600082601f830112611a5557611a54611928565b5b8135611a658482602086016119fe565b91505092915050565b60008060408385031215611a8557611a846117b3565b5b6000611a9385828601611806565b925050602083013567ffffffffffffffff811115611ab457611ab36117b8565b5b611ac085828601611a40565b9150509250929050565b6000819050919050565b611add81611aca565b82525050565b6000602082019050611af86000830184611ad4565b92915050565b611b07816117dd565b82525050565b6000602082019050611b226000830184611afe565b92915050565b600060208284031215611b3e57611b3d6117b3565b5b6000611b4c8482850161183c565b91505092915050565b600082825260208201905092915050565b7f61646472657373207a65726f206973206e6f7420612076616c6964206f776e6560008201527f7200000000000000000000000000000000000000000000000000000000000000602082015250565b6000611bc2602183611b55565b9150611bcd82611b66565b604082019050919050565b60006020820190508181036000830152611bf181611bb5565b9050919050565b7f4e4f4e4558495354454e545f544f4b454e000000000000000000000000000000600082015250565b6000611c2e601183611b55565b9150611c3982611bf8565b602082019050919050565b60006020820190508181036000830152611c5d81611c21565b9050919050565b7f46756e6374696f6e206d7573742062652063616c6c6564207468726f7567682060008201527f64656c656761746563616c6c0000000000000000000000000000000000000000602082015250565b6000611cc0602c83611b55565b9150611ccb82611c64565b604082019050919050565b60006020820190508181036000830152611cef81611cb3565b9050919050565b7f46756e6374696f6e206d7573742062652063616c6c6564207468726f7567682060008201527f6163746976652070726f78790000000000000000000000000000000000000000602082015250565b6000611d52602c83611b55565b9150611d5d82611cf6565b604082019050919050565b60006020820190508181036000830152611d8181611d45565b9050919050565b7f4f776e61626c653a2063616c6c6572206973206e6f7420746865206f776e6572600082015250565b6000611dbe602083611b55565b9150611dc982611d88565b602082019050919050565b60006020820190508181036000830152611ded81611db1565b9050919050565b600081905092915050565b50565b6000611e0f600083611df4565b9150611e1a82611dff565b600082019050919050565b6000611e3082611e02565b9150819050919050565b7f4661696c656420746f2073656e64204574686572000000000000000000000000600082015250565b6000611e70601483611b55565b9150611e7b82611e3a565b602082019050919050565b60006020820190508181036000830152611e9f81611e63565b9050919050565b6000604082019050611ebb6000830185611891565b611ec86020830184611891565b9392505050565b7f555550535570677261646561626c653a206d757374206e6f742062652063616c60008201527f6c6564207468726f7567682064656c656761746563616c6c0000000000000000602082015250565b6000611f2b603883611b55565b9150611f3682611ecf565b604082019050919050565b60006020820190508181036000830152611f5a81611f1e565b9050919050565b7f496e697469616c697a61626c653a20636f6e747261637420697320616c72656160008201527f647920696e697469616c697a6564000000000000000000000000000000000000602082015250565b6000611fbd602e83611b55565b9150611fc882611f61565b604082019050919050565b60006020820190508181036000830152611fec81611fb0565b9050919050565b7f616c726561647920686176650000000000000000000000000000000000000000600082015250565b6000612029600c83611b55565b915061203482611ff3565b602082019050919050565b600060208201905081810360008301526120588161201c565b9050919050565b7f696e7375666669656e7420616d6f756e74000000000000000000000000000000600082015250565b6000612095601183611b55565b91506120a08261205f565b602082019050919050565b600060208201905081810360008301526120c481612088565b9050919050565b7f4f776e61626c653a206e6577206f776e657220697320746865207a65726f206160008201527f6464726573730000000000000000000000000000000000000000000000000000602082015250565b6000612127602683611b55565b9150612132826120cb565b604082019050919050565b600060208201905081810360008301526121568161211a565b9050919050565b61216681611aca565b811461217157600080fd5b50565b6000815190506121838161215d565b92915050565b60006020828403121561219f5761219e6117b3565b5b60006121ad84828501612174565b91505092915050565b7f45524331393637557067726164653a206e657720696d706c656d656e7461746960008201527f6f6e206973206e6f742055555053000000000000000000000000000000000000602082015250565b6000612212602e83611b55565b915061221d826121b6565b604082019050919050565b6000602082019050818103600083015261224181612205565b9050919050565b7f45524331393637557067726164653a20756e737570706f727465642070726f7860008201527f6961626c65555549440000000000000000000000000000000000000000000000602082015250565b60006122a4602983611b55565b91506122af82612248565b604082019050919050565b600060208201905081810360008301526122d381612297565b9050919050565b7f4e487b7100000000000000000000000000000000000000000000000000000000600052601160045260246000fd5b60006123148261181b565b91507fffffffffffffffffffffffffffffffffffffffffffffffffffffffffffffffff8203612346576123456122da565b5b600182019050919050565b7f496e697469616c697a61626c653a20636f6e7472616374206973206e6f74206960008201527f6e697469616c697a696e67000000000000000000000000000000000000000000602082015250565b60006123ad602b83611b55565b91506123b882612351565b604082019050919050565b600060208201905081810360008301526123dc816123a0565b9050919050565b7f4e487b7100000000000000000000000000000000000000000000000000000000600052601260045260246000fd5b600061241d8261181b565b91506124288361181b565b925082612438576124376123e3565b5b828204905092915050565b600061244e8261181b565b91506124598361181b565b92508282026124678161181b565b9150828204841483151761247e5761247d6122da565b5b5092915050565b7f455243313936373a206e657720696d706c656d656e746174696f6e206973206e60008201527f6f74206120636f6e747261637400000000000000000000000000000000000000602082015250565b60006124e1602d83611b55565b91506124ec82612485565b604082019050919050565b60006020820190508181036000830152612510816124d4565b9050919050565b60006125228261181b565b915061252d8361181b565b9250828201905080821115612545576125446122da565b5b92915050565b7f416464726573733a2064656c65676174652063616c6c20746f206e6f6e2d636f60008201527f6e74726163740000000000000000000000000000000000000000000000000000602082015250565b60006125a7602683611b55565b91506125b28261254b565b604082019050919050565b600060208201905081810360008301526125d68161259a565b9050919050565b600081519050919050565b60005b838110156126065780820151818401526020810190506125eb565b60008484015250505050565b600061261d826125dd565b6126278185611df4565b93506126378185602086016125e8565b80840191505092915050565b600061264f8284612612565b915081905092915050565b600081519050919050565b60006126708261265a565b61267a8185611b55565b935061268a8185602086016125e8565b61269381611932565b840191505092915050565b600060208201905081810360008301526126b88184612665565b90509291505056fe416464726573733a206c6f772d6c6576656c2064656c65676174652063616c6c206661696c6564a2646970667358221220fdefb5321028fd331a836a0b6b0b786f1570d028aeb6b9bf7b89a876dda45e2364736f6c63430008110033",
  "immutableReferences": {
    "617": [
      {
        "length": 32,
        "start": 990
      },
      {
        "length": 32,
        "start": 1132
      },
      {
        "length": 32,
        "start": 2216
      },
      {
        "length": 32,
        "start": 2358
      },
      {
        "length": 32,
        "start": 2534
      }
    ]
  },
  "source": "// SPDX-License-Identifier: MIT\npragma solidity ^0.8.0;\n\nimport \"@openzeppelin/contracts-upgradeable/access/OwnableUpgradeable.sol\";\nimport \"@openzeppelin/contracts-upgradeable/proxy/utils/Initializable.sol\";\nimport \"@openzeppelin/contracts-upgradeable/proxy/utils/UUPSUpgradeable.sol\";\nimport \"@openzeppelin/contracts-upgradeable/utils/math/SafeMathUpgradeable.sol\";\n\ncontract Dmeet is Initializable, OwnableUpgradeable, UUPSUpgradeable {\n    using SafeMathUpgradeable for uint256;\n\n    event Membership(address indexed creator, uint256 viewer, uint256 participant);\n\n    uint256 private _currentTokenID;\n\n    mapping (uint256 => address) public creators;\n    mapping (uint256 => uint256) public tokenPrice;\n    mapping(uint256 => mapping(address => uint256)) private _balances;\n\n    modifier creatorOnly(uint256 _id) {\n        require(creators[_id] == msg.sender, \"ONLY_CREATOR_ALLOWED\");\n        _;\n    }\n\n    function initialize(\n    ) initializer public {\n        __Ownable_init();\n        __UUPSUpgradeable_init();\n    }\n\n    function buyMembership(uint256 _id)\n        public\n        payable\n    {\n        require(_exists(_id), \"NONEXISTENT_TOKEN\");\n\n        uint256 amount = balanceOf(msg.sender, _id);\n        require(amount < 1, \"already have\");\n\n        uint256 price = tokenPrice[_id];\n        require(price <= msg.value, \"insuffient amount\");\n\n        address creator = creators[_id];\n\n        (bool sent, /* bytes memory data */) = creator.call{value: msg.value.div(1000).mul(900)}(\"\");\n        require(sent, \"Failed to send Ether\");\n\n        _balances[_id][msg.sender] = 1;\n    }\n\n    function createMembership(uint256 _viewerPrice, uint256 _participantPrice) external {\n        uint256 viewer = 0;\n        uint256 participant = 0;\n\n        if (_viewerPrice > 0) {\n            viewer = _getNextTokenID();\n            _incrementTokenTypeId();\n\n            creators[viewer] = msg.sender;\n            tokenPrice[viewer] = _viewerPrice;\n            _balances[viewer][msg.sender] = 1;\n        }\n\n        if (_participantPrice > 0) {\n            participant = _getNextTokenID();\n            _incrementTokenTypeId();\n\n            creators[participant] = msg.sender;\n            tokenPrice[participant] = _participantPrice;\n            _balances[participant][msg.sender] = 1;\n        }\n\n        emit Membership(msg.sender, viewer, participant);\n    }\n\n    function balanceOf(address _account, uint256 _id) public view returns (uint256) {\n        require(_account != address(0), \"address zero is not a valid owner\");\n        require(_exists(_id), \"NONEXISTENT_TOKEN\");\n\n        return _balances[_id][_account];\n    }\n\n    function withdraw() public onlyOwner {\n        uint balance = address(this).balance;\n\n        (bool sent, /* bytes memory data */) = msg.sender.call{value: balance}(\"\");\n        require(sent, \"Failed to send Ether\");\n    }\n\n    function _authorizeUpgrade(address newImplementation)\n        internal\n        onlyOwner\n        override\n    {}\n\n    function _exists(\n        uint256 _id\n    ) internal view returns (bool) {\n        return creators[_id] != address(0);\n    }\n\n    function _getNextTokenID() private view returns (uint256) {\n        return _currentTokenID.add(1);\n    }\n\n    function _incrementTokenTypeId() private {\n        _currentTokenID++;\n    }\n}",
  "sourcePath": "/Users/vf/dmeet-contracts/contracts/Dmeet.sol",
  "compiler": {
    "name": "solc",
    "version": "0.8.17+commit.8df45f5f.Emscripten.clang"
  },
  "schemaVersion": "3.4.1",
  "updatedAt": "2022-12-29T14:49:07.958Z",
  "networkType": "ethereum",
  "devdoc": {
    "kind": "dev",
    "methods": {
      "owner()": {
        "details": "Returns the address of the current owner."
      },
      "proxiableUUID()": {
        "details": "Implementation of the ERC1822 {proxiableUUID} function. This returns the storage slot used by the implementation. It is used to validate that the this implementation remains valid after an upgrade. IMPORTANT: A proxy pointing at a proxiable contract should not be considered proxiable itself, because this risks bricking a proxy that upgrades to it, by delegating to itself until out of gas. Thus it is critical that this function revert if invoked through a proxy. This is guaranteed by the `notDelegated` modifier."
      },
      "renounceOwnership()": {
        "details": "Leaves the contract without owner. It will not be possible to call `onlyOwner` functions anymore. Can only be called by the current owner. NOTE: Renouncing ownership will leave the contract without an owner, thereby removing any functionality that is only available to the owner."
      },
      "transferOwnership(address)": {
        "details": "Transfers ownership of the contract to a new account (`newOwner`). Can only be called by the current owner."
      },
      "upgradeTo(address)": {
        "details": "Upgrade the implementation of the proxy to `newImplementation`. Calls {_authorizeUpgrade}. Emits an {Upgraded} event."
      },
      "upgradeToAndCall(address,bytes)": {
        "details": "Upgrade the implementation of the proxy to `newImplementation`, and subsequently execute the function call encoded in `data`. Calls {_authorizeUpgrade}. Emits an {Upgraded} event."
      }
    },
    "version": 1
  },
  "userdoc": {
    "kind": "user",
    "methods": {},
    "version": 1
  }
}